{
  "_format": "hh-sol-artifact-1",
  "contractName": "BankAccount",
  "sourceName": "contracts/BankAccount.sol",
  "abi": [
    {
      "anonymous": false,
      "inputs": [
        {
          "indexed": false,
          "internalType": "address[]",
          "name": "owners",
          "type": "address[]"
        },
        {
          "indexed": true,
          "internalType": "uint256",
          "name": "id",
          "type": "uint256"
        },
        {
          "indexed": false,
          "internalType": "uint256",
          "name": "timestamp",
          "type": "uint256"
        }
      ],
      "name": "AccountCreated",
      "type": "event"
    },
    {
      "anonymous": false,
      "inputs": [
        {
          "indexed": true,
          "internalType": "address",
          "name": "user",
          "type": "address"
        },
        {
          "indexed": true,
          "internalType": "uint256",
          "name": "accountID",
          "type": "uint256"
        },
        {
          "indexed": false,
          "internalType": "uint256",
          "name": "value",
          "type": "uint256"
        },
        {
          "indexed": false,
          "internalType": "uint256",
          "name": "timestamp",
          "type": "uint256"
        }
      ],
      "name": "Deposit",
      "type": "event"
    },
    {
      "anonymous": false,
      "inputs": [
        {
          "indexed": true,
          "internalType": "uint256",
          "name": "withdrawID",
          "type": "uint256"
        },
        {
          "indexed": false,
          "internalType": "uint256",
          "name": "timestamp",
          "type": "uint256"
        }
      ],
      "name": "Withdraw",
      "type": "event"
    },
    {
      "anonymous": false,
      "inputs": [
        {
          "indexed": true,
          "internalType": "address",
          "name": "user",
          "type": "address"
        },
        {
          "indexed": true,
          "internalType": "uint256",
          "name": "accountID",
          "type": "uint256"
        },
        {
          "indexed": true,
          "internalType": "uint256",
          "name": "withdrawID",
          "type": "uint256"
        },
        {
          "indexed": false,
          "internalType": "uint256",
          "name": "amount",
          "type": "uint256"
        },
        {
          "indexed": false,
          "internalType": "uint256",
          "name": "timestamp",
          "type": "uint256"
        }
      ],
      "name": "WithdrawRequested",
      "type": "event"
    },
    {
      "inputs": [
        {
          "internalType": "uint256",
          "name": "accountID",
          "type": "uint256"
        },
        {
          "internalType": "uint256",
          "name": "withdrawalID",
          "type": "uint256"
        }
      ],
      "name": "approveWithdrawal",
      "outputs": [],
      "stateMutability": "nonpayable",
      "type": "function"
    },
    {
      "inputs": [
        {
          "internalType": "address[]",
          "name": "otherOwners",
          "type": "address[]"
        }
      ],
      "name": "createAccount",
      "outputs": [],
      "stateMutability": "nonpayable",
      "type": "function"
    },
    {
      "inputs": [
        {
          "internalType": "uint256",
          "name": "accountID",
          "type": "uint256"
        }
      ],
      "name": "deposit",
      "outputs": [],
      "stateMutability": "payable",
      "type": "function"
    },
    {
      "inputs": [],
      "name": "getAccounts",
      "outputs": [
        {
          "internalType": "uint256[]",
          "name": "",
          "type": "uint256[]"
        }
      ],
      "stateMutability": "view",
      "type": "function"
    },
    {
      "inputs": [
        {
          "internalType": "uint256",
          "name": "accountID",
          "type": "uint256"
        },
        {
          "internalType": "uint256",
          "name": "withdrawalID",
          "type": "uint256"
        }
      ],
      "name": "getApprovals",
      "outputs": [
        {
          "internalType": "uint256",
          "name": "",
          "type": "uint256"
        }
      ],
      "stateMutability": "view",
      "type": "function"
    },
    {
      "inputs": [
        {
          "internalType": "uint256",
          "name": "accountID",
          "type": "uint256"
        }
      ],
      "name": "getBalance",
      "outputs": [
        {
          "internalType": "uint256",
          "name": "",
          "type": "uint256"
        }
      ],
      "stateMutability": "view",
      "type": "function"
    },
    {
      "inputs": [
        {
          "internalType": "uint256",
          "name": "accountID",
          "type": "uint256"
        }
      ],
      "name": "getOwners",
      "outputs": [
        {
          "internalType": "address[]",
          "name": "",
          "type": "address[]"
        }
      ],
      "stateMutability": "view",
      "type": "function"
    },
    {
      "inputs": [
        {
          "internalType": "uint256",
          "name": "accountID",
          "type": "uint256"
        },
        {
          "internalType": "uint256",
          "name": "amount",
          "type": "uint256"
        }
      ],
      "name": "requestWithdrawal",
      "outputs": [],
      "stateMutability": "nonpayable",
      "type": "function"
    },
    {
      "inputs": [
        {
          "internalType": "uint256",
          "name": "accountID",
          "type": "uint256"
        },
        {
          "internalType": "uint256",
          "name": "withdrawID",
          "type": "uint256"
        }
      ],
      "name": "withdraw",
      "outputs": [],
      "stateMutability": "nonpayable",
      "type": "function"
    }
  ],
  "bytecode": "0x608060405234801561001057600080fd5b506120a3806100206000396000f3fe6080604052600436106100865760003560e01c80638a48ac03116100595780638a48ac0314610157578063ae2ebd7f14610182578063b6b55f25146101ab578063ee4525d5146101c7578063eff634331461020457610086565b80631a0bd42b1461008b5780631e010439146100b4578063441a3e70146100f1578063867275a51461011a575b600080fd5b34801561009757600080fd5b506100b260048036038101906100ad91906114d8565b61022d565b005b3480156100c057600080fd5b506100db60048036038101906100d69190611518565b6106c9565b6040516100e89190611554565b60405180910390f35b3480156100fd57600080fd5b50610118600480360381019061011391906114d8565b6106e8565b005b34801561012657600080fd5b50610141600480360381019061013c91906114d8565b6109f3565b60405161014e9190611554565b60405180910390f35b34801561016357600080fd5b5061016c610a27565b604051610179919061162d565b60405180910390f35b34801561018e57600080fd5b506101a960048036038101906101a491906114d8565b610abc565b005b6101c560048036038101906101c09190611518565b610d14565b005b3480156101d357600080fd5b506101ee60048036038101906101e99190611518565b610e52565b6040516101fb919061173f565b60405180910390f35b34801561021057600080fd5b5061022b600480360381019061022691906117c6565b610ef5565b005b816000805b600080848152602001908152602001600020600001805490508110156102f2573373ffffffffffffffffffffffffffffffffffffffff1660008085815260200190815260200160002060000182815481106102905761028f611813565b5b9060005260206000200160009054906101000a900473ffffffffffffffffffffffffffffffffffffffff1673ffffffffffffffffffffffffffffffffffffffff16036102df57600191506102f2565b80806102ea90611871565b915050610232565b50600115158115151461033a576040517f08c379a00000000000000000000000000000000000000000000000000000000081526004016103319061193c565b60405180910390fd5b8383600080838152602001908152602001600020600201600082815260200190815260200160002060030160009054906101000a900460ff16156103b3576040517f08c379a00000000000000000000000000000000000000000000000000000000081526004016103aa906119ce565b60405180910390fd5b3373ffffffffffffffffffffffffffffffffffffffff16600080848152602001908152602001600020600201600083815260200190815260200160002060000160009054906101000a900473ffffffffffffffffffffffffffffffffffffffff1673ffffffffffffffffffffffffffffffffffffffff160361046a576040517f08c379a000000000000000000000000000000000000000000000000000000000815260040161046190611a3a565b60405180910390fd5b600073ffffffffffffffffffffffffffffffffffffffff16600080848152602001908152602001600020600201600083815260200190815260200160002060000160009054906101000a900473ffffffffffffffffffffffffffffffffffffffff1673ffffffffffffffffffffffffffffffffffffffff1603610522576040517f08c379a000000000000000000000000000000000000000000000000000000000815260040161051990611aa6565b60405180910390fd5b600080838152602001908152602001600020600201600082815260200190815260200160002060040160003373ffffffffffffffffffffffffffffffffffffffff1673ffffffffffffffffffffffffffffffffffffffff16815260200190815260200160002060009054906101000a900460ff166105d5576040517f08c379a00000000000000000000000000000000000000000000000000000000081526004016105cc90611b38565b60405180910390fd5b60008060008881526020019081526020016000206002016000878152602001908152602001600020905080600201600081548092919061061490611871565b919050555060018160040160003373ffffffffffffffffffffffffffffffffffffffff1673ffffffffffffffffffffffffffffffffffffffff16815260200190815260200160002060006101000a81548160ff0219169083151502179055506001600080898152602001908152602001600020600001805490506106989190611b58565b8160020154036106c05760018160030160006101000a81548160ff0219169083151502179055505b50505050505050565b6000806000838152602001908152602001600020600101549050919050565b81813373ffffffffffffffffffffffffffffffffffffffff16600080848152602001908152602001600020600201600083815260200190815260200160002060000160009054906101000a900473ffffffffffffffffffffffffffffffffffffffff1673ffffffffffffffffffffffffffffffffffffffff16146107a1576040517f08c379a000000000000000000000000000000000000000000000000000000000815260040161079890611bd8565b60405180910390fd5b600080838152602001908152602001600020600201600082815260200190815260200160002060030160009054906101000a900460ff16610817576040517f08c379a000000000000000000000000000000000000000000000000000000000815260040161080e90611c44565b60405180910390fd5b600080600086815260200190815260200160002060020160008581526020019081526020016000206001015490508060008087815260200190815260200160002060010154101561089d576040517f08c379a000000000000000000000000000000000000000000000000000000000815260040161089490611cb0565b60405180910390fd5b8060008087815260200190815260200160002060010160008282546108c29190611b58565b925050819055506000808681526020019081526020016000206002016000858152602001908152602001600020600080820160006101000a81549073ffffffffffffffffffffffffffffffffffffffff0219169055600182016000905560028201600090556003820160006101000a81549060ff0219169055505060003373ffffffffffffffffffffffffffffffffffffffff168260405161096390611d01565b60006040518083038185875af1925050503d80600081146109a0576040519150601f19603f3d011682016040523d82523d6000602084013e6109a5565b606091505b50509050806109b357600080fd5b847f56ca301a9219608c91e7bcee90e083c19671d2cdcc96752c7af291cee5f9c8c8426040516109e39190611554565b60405180910390a2505050505050565b6000806000848152602001908152602001600020600201600083815260200190815260200160002060020154905092915050565b6060600160003373ffffffffffffffffffffffffffffffffffffffff1673ffffffffffffffffffffffffffffffffffffffff168152602001908152602001600020805480602002602001604051908101604052809291908181526020018280548015610ab257602002820191906000526020600020905b815481526020019060010190808311610a9e575b5050505050905090565b816000805b60008084815260200190815260200160002060000180549050811015610b81573373ffffffffffffffffffffffffffffffffffffffff166000808581526020019081526020016000206000018281548110610b1f57610b1e611813565b5b9060005260206000200160009054906101000a900473ffffffffffffffffffffffffffffffffffffffff1673ffffffffffffffffffffffffffffffffffffffff1603610b6e5760019150610b81565b8080610b7990611871565b915050610ac1565b506001151581151514610bc9576040517f08c379a0000000000000000000000000000000000000000000000000000000008152600401610bc09061193c565b60405180910390fd5b838380600080848152602001908152602001600020600101541015610c23576040517f08c379a0000000000000000000000000000000000000000000000000000000008152600401610c1a90611d62565b60405180910390fd5b60006003549050600080600089815260200190815260200160002060020160008381526020019081526020016000209050338160000160006101000a81548173ffffffffffffffffffffffffffffffffffffffff021916908373ffffffffffffffffffffffffffffffffffffffff16021790555086816001018190555060036000815480929190610cb390611871565b919050555081883373ffffffffffffffffffffffffffffffffffffffff167f1f0d204a59639d21245dbaa239dfc9a6227aa86cb614bdda19843c52d155fcfa8a42604051610d02929190611d82565b60405180910390a45050505050505050565b806000805b60008084815260200190815260200160002060000180549050811015610dd9573373ffffffffffffffffffffffffffffffffffffffff166000808581526020019081526020016000206000018281548110610d7757610d76611813565b5b9060005260206000200160009054906101000a900473ffffffffffffffffffffffffffffffffffffffff1673ffffffffffffffffffffffffffffffffffffffff1603610dc65760019150610dd9565b8080610dd190611871565b915050610d19565b506001151581151514610e21576040517f08c379a0000000000000000000000000000000000000000000000000000000008152600401610e189061193c565b60405180910390fd5b346000808581526020019081526020016000206001016000828254610e469190611dab565b92505081905550505050565b6060600080838152602001908152602001600020600001805480602002602001604051908101604052809291908181526020018280548015610ee957602002820191906000526020600020905b8160009054906101000a900473ffffffffffffffffffffffffffffffffffffffff1673ffffffffffffffffffffffffffffffffffffffff1681526020019060010190808311610e9f575b50505050509050919050565b81816004600183839050610f099190611dab565b1115610f4a576040517f08c379a0000000000000000000000000000000000000000000000000000000008152600401610f4190611e2b565b60405180910390fd5b60005b828290508110156110ed573373ffffffffffffffffffffffffffffffffffffffff16838383818110610f8257610f81611813565b5b9050602002016020810190610f979190611e77565b73ffffffffffffffffffffffffffffffffffffffff1603610fed576040517f08c379a0000000000000000000000000000000000000000000000000000000008152600401610fe490611ef0565b60405180910390fd5b6000600182610ffc9190611dab565b90505b838390508110156110d95783838281811061101d5761101c611813565b5b90506020020160208101906110329190611e77565b73ffffffffffffffffffffffffffffffffffffffff1684848481811061105b5761105a611813565b5b90506020020160208101906110709190611e77565b73ffffffffffffffffffffffffffffffffffffffff16036110c6576040517f08c379a00000000000000000000000000000000000000000000000000000000081526004016110bd90611f5c565b60405180910390fd5b80806110d190611871565b915050610fff565b5080806110e590611871565b915050610f4d565b5060006001858590506111009190611dab565b67ffffffffffffffff81111561111957611118611f7c565b5b6040519080825280602002602001820160405280156111475781602001602082028036833780820191505090505b5090503381868690508151811061116157611160611813565b5b602002602001019073ffffffffffffffffffffffffffffffffffffffff16908173ffffffffffffffffffffffffffffffffffffffff16815250506000600254905060005b825181101561136c57600183516111bc9190611b58565b811015611239578686828181106111d6576111d5611813565b5b90506020020160208101906111eb9190611e77565b8382815181106111fe576111fd611813565b5b602002602001019073ffffffffffffffffffffffffffffffffffffffff16908173ffffffffffffffffffffffffffffffffffffffff16815250505b60026001600085848151811061125257611251611813565b5b602002602001015173ffffffffffffffffffffffffffffffffffffffff1673ffffffffffffffffffffffffffffffffffffffff1681526020019081526020016000208054905011156112d9576040517f08c379a00000000000000000000000000000000000000000000000000000000081526004016112d09061201d565b60405180910390fd5b600160008483815181106112f0576112ef611813565b5b602002602001015173ffffffffffffffffffffffffffffffffffffffff1673ffffffffffffffffffffffffffffffffffffffff168152602001908152602001600020829080600181540180825580915050600190039060005260206000200160009091909190915055808061136490611871565b9150506111a5565b508160008083815260200190815260200160002060000190805190602001906113969291906113f1565b50600260008154809291906113aa90611871565b9190505550807f1dfea57c7217d8ee2ef44253419f3a05acdf0e6dea69f12e9e2afa2e748e3c8c83426040516113e192919061203d565b60405180910390a2505050505050565b82805482825590600052602060002090810192821561146a579160200282015b828111156114695782518260006101000a81548173ffffffffffffffffffffffffffffffffffffffff021916908373ffffffffffffffffffffffffffffffffffffffff16021790555091602001919060010190611411565b5b509050611477919061147b565b5090565b5b8082111561149457600081600090555060010161147c565b5090565b600080fd5b600080fd5b6000819050919050565b6114b5816114a2565b81146114c057600080fd5b50565b6000813590506114d2816114ac565b92915050565b600080604083850312156114ef576114ee611498565b5b60006114fd858286016114c3565b925050602061150e858286016114c3565b9150509250929050565b60006020828403121561152e5761152d611498565b5b600061153c848285016114c3565b91505092915050565b61154e816114a2565b82525050565b60006020820190506115696000830184611545565b92915050565b600081519050919050565b600082825260208201905092915050565b6000819050602082019050919050565b6115a4816114a2565b82525050565b60006115b6838361159b565b60208301905092915050565b6000602082019050919050565b60006115da8261156f565b6115e4818561157a565b93506115ef8361158b565b8060005b8381101561162057815161160788826115aa565b9750611612836115c2565b9250506001810190506115f3565b5085935050505092915050565b6000602082019050818103600083015261164781846115cf565b905092915050565b600081519050919050565b600082825260208201905092915050565b6000819050602082019050919050565b600073ffffffffffffffffffffffffffffffffffffffff82169050919050565b60006116a68261167b565b9050919050565b6116b68161169b565b82525050565b60006116c883836116ad565b60208301905092915050565b6000602082019050919050565b60006116ec8261164f565b6116f6818561165a565b93506117018361166b565b8060005b8381101561173257815161171988826116bc565b9750611724836116d4565b925050600181019050611705565b5085935050505092915050565b6000602082019050818103600083015261175981846116e1565b905092915050565b600080fd5b600080fd5b600080fd5b60008083601f84011261178657611785611761565b5b8235905067ffffffffffffffff8111156117a3576117a2611766565b5b6020830191508360208202830111156117bf576117be61176b565b5b9250929050565b600080602083850312156117dd576117dc611498565b5b600083013567ffffffffffffffff8111156117fb576117fa61149d565b5b61180785828601611770565b92509250509250929050565b7f4e487b7100000000000000000000000000000000000000000000000000000000600052603260045260246000fd5b7f4e487b7100000000000000000000000000000000000000000000000000000000600052601160045260246000fd5b600061187c826114a2565b91507fffffffffffffffffffffffffffffffffffffffffffffffffffffffffffffffff82036118ae576118ad611842565b5b600182019050919050565b600082825260208201905092915050565b7f596f7520617265206e6f7420616e206f776e6572206f6620746869732061636360008201527f6f756e7421000000000000000000000000000000000000000000000000000000602082015250565b60006119266025836118b9565b9150611931826118ca565b604082019050919050565b6000602082019050818103600083015261195581611919565b9050919050565b7f54686973207265717565737420697320616c726561647920617070726f76656460008201527f2100000000000000000000000000000000000000000000000000000000000000602082015250565b60006119b86021836118b9565b91506119c38261195c565b604082019050919050565b600060208201905081810360008301526119e7816119ab565b9050919050565b7f596f752063616e6e6f7420617070726f76652074686973207265717565737421600082015250565b6000611a246020836118b9565b9150611a2f826119ee565b602082019050919050565b60006020820190508181036000830152611a5381611a17565b9050919050565b7f54686973207265717565737420646f6573206e6f742065786973742100000000600082015250565b6000611a90601c836118b9565b9150611a9b82611a5a565b602082019050919050565b60006020820190508181036000830152611abf81611a83565b9050919050565b7f596f7520616c726561647920617070726f76656420746869732072657175657360008201527f7421000000000000000000000000000000000000000000000000000000000000602082015250565b6000611b226022836118b9565b9150611b2d82611ac6565b604082019050919050565b60006020820190508181036000830152611b5181611b15565b9050919050565b6000611b63826114a2565b9150611b6e836114a2565b9250828203905081811115611b8657611b85611842565b5b92915050565b7f596f7520646964206e6f74206372656174652074686973207265717565737421600082015250565b6000611bc26020836118b9565b9150611bcd82611b8c565b602082019050919050565b60006020820190508181036000830152611bf181611bb5565b9050919050565b7f546869732072657175657374206973206e6f7420617070726f76656421000000600082015250565b6000611c2e601d836118b9565b9150611c3982611bf8565b602082019050919050565b60006020820190508181036000830152611c5d81611c21565b9050919050565b7f496e73756666696369656e742046756e64732100000000000000000000000000600082015250565b6000611c9a6013836118b9565b9150611ca582611c64565b602082019050919050565b60006020820190508181036000830152611cc981611c8d565b9050919050565b600081905092915050565b50565b6000611ceb600083611cd0565b9150611cf682611cdb565b600082019050919050565b6000611d0c82611cde565b9150819050919050565b7f496e73756666696369656e742042616c616e6365210000000000000000000000600082015250565b6000611d4c6015836118b9565b9150611d5782611d16565b602082019050919050565b60006020820190508181036000830152611d7b81611d3f565b9050919050565b6000604082019050611d976000830185611545565b611da46020830184611545565b9392505050565b6000611db6826114a2565b9150611dc1836114a2565b9250828201905080821115611dd957611dd8611842565b5b92915050565b7f4d6178696d756d206f662034206f776e65727320706572206163636f756e7400600082015250565b6000611e15601f836118b9565b9150611e2082611ddf565b602082019050919050565b60006020820190508181036000830152611e4481611e08565b9050919050565b611e548161169b565b8114611e5f57600080fd5b50565b600081359050611e7181611e4b565b92915050565b600060208284031215611e8d57611e8c611498565b5b6000611e9b84828501611e62565b91505092915050565b7f4e6f204475706c6963617465204f776e65727300000000000000000000000000600082015250565b6000611eda6013836118b9565b9150611ee582611ea4565b602082019050919050565b60006020820190508181036000830152611f0981611ecd565b9050919050565b7f4e6f206475706c6963617465206f776e65727321000000000000000000000000600082015250565b6000611f466014836118b9565b9150611f5182611f10565b602082019050919050565b60006020820190508181036000830152611f7581611f39565b9050919050565b7f4e487b7100000000000000000000000000000000000000000000000000000000600052604160045260246000fd5b7f4561636820757365722063616e206f6e6c792068617665206174206d6f73742060008201527f33206163636f756e747321000000000000000000000000000000000000000000602082015250565b6000612007602b836118b9565b915061201282611fab565b604082019050919050565b6000602082019050818103600083015261203681611ffa565b9050919050565b6000604082019050818103600083015261205781856116e1565b90506120666020830184611545565b939250505056fea26469706673582212203b2559a386c41abaa02aa1f90f47e2ee86660ba05061d1d338a23272d8b3f9ea64736f6c63430008110033",
  "linkReferences": {},
  "deployedLinkReferences": {}
}